:100000000C9434000C943E000C943E000C943E0082
:100010000C943E000C943E000C943E000C943E0068
:100020000C943E000C943E000C943E000C943E0058
:100030000C943E000C943E000C943E000C943E0048
:100040000C943E000C943E000C943E000C943E0038
:100050000C943E000C943E000C943E000C943E0028
:100060000C943E000C943E0011241FBECFEFD8E04C
:10007000DEBFCDBF0E9440000C945F000C940000D6
:100080008AB184638AB95A9A5C985D9A8BB18BB9AC
:100090002FEF8EE994E2215080409040E1F700C0BC
:1000A00000005C9A5D988BB18BB92FEF8EE994E2DA
:1000B000215080409040E1F700C00000E5CFF89467
:0200C000FFCF70
:00000001FF
